:020000040800F2
:100000004007002089010008F71100086910000866
:10001000F51100088F0200084514000800000000D8
:10002000000000000000000000000000FB110008BC
:100030009102000800000000F9110008FD110008FD
:10004000A3010008A3010008A3010008A301000800
:10005000A3010008A3010008A3010008A3010008F0
:10006000A3010008A3010008A3010008A3010008E0
:10007000A3010008A3010008A3010008A3010008D0
:10008000A3010008A3010008A3010008A3010008C0
:10009000A3010008A3010008A3010008A3010008B0
:1000A000A3010008A3010008A3010008A3010008A0
:1000B000A3010008611200086D120008A3010008E6
:1000C000A3010008A3010008A3010008A301000880
:1000D000A3010008A3010008A3010008A301000870
:1000E000A3010008A3010008A301000800F002F822
:1000F00000F03AF80AA090E8000C82448344AAF188
:100100000107DA4501D100F02FF8AFF2090EBAE885
:100110000F0013F0010F18BFFB1A43F0010318473B
:10012000A4230000C4230000103A24BF78C878C17B
:10013000FAD8520724BF30C830C144BF04680C60ED
:10014000704700000023002400250026103A28BF35
:1001500078C1FBD8520728BF30C148BF0B60704739
:100160001FB51FBD10B510BD00F058F81146FFF7C0
:10017000F7FF01F09DF900F076F803B4FFF7F2FF06
:1001800003BC00F07DF8000009488047094800479B
:10019000FEE7FEE7FEE7FEE7FEE7FEE7FEE7FEE737
:1001A000FEE7FEE704480549054A064B7047000094
:1001B0005F120008ED000008400100204007002009
:1001C00040030020400300204FF0000200B513461A
:1001D00094469646203922BFA0E80C50A0E80C5067
:1001E000B1F12001BFF4F7AF090728BFA0E80C5018
:1001F00048BF0CC05DF804EB890028BF40F8042B11
:1002000008BF704748BF20F8022B11F0804F18BF7D
:1002100000F8012B7047704770477047754600F033
:100220002BF8AE4605006946534620F00700854688
:1002300018B020B5FFF7B6FFBDE820404FF000062C
:100240004FF000074FF000084FF0000B21F00701BE
:10025000AC46ACE8C009ACE8C009ACE8C009ACE801
:10026000C0098D46704710B50446AFF300802046A4
:10027000BDE81040FFF781BF00487047E000002054
:1002800001491820ABBEFEE7260002007047FEE7DA
:100290007047000070B5044600F004F90546601C84
:1002A00002D004480078044400F0FCF8401BA0424F
:1002B000FAD370BD400000202DE9F84FDFF8B89167
:1002C000002409F1040A0AF1040B23460F270BF15D
:1002D000040EC9E00125A5402A40AA427DD1674EFF
:1002E000D1F804C0ACEB0608B44532D014DCBCF144
:1002F000030F3AD009DCBCF1000F2AD0BCF1010F8A
:100300001CD0BCF1020F31D11DE0BCF1110F17D090
:10031000BCF1120F2AD119E0B8F5881F19D006DCFC
:10032000B8F5803F15D0B8F5801F1FD111E0B8F5A2
:10033000001F0ED0B8F5041F18D10AE0CB6815E0F5
:10034000CB681B1D12E0CB6808330FE0CB680C3381
:100350000CE08B682BB1012B4FF0080303D04561F3
:1003600004E0042302E0056100E00023FF2A01D835
:10037000064601E000F104064FEA840501D9A5F123
:100380002005D6F8008007FA05FC28EA0C0803FAD5
:1003900005F548EA0508C6F800804D68ED0062D50D
:1003A000374DAE6946F00106AE61AD6924F0030633
:1003B00005F001050095334D06EB050CDCF80850FF
:1003C000A607360F07FA06F825EA0805DFF8B88011
:1003D000404503D14FF0000817E044E0DFF8AC805F
:1003E000404502D14FF001080FE0DFF8A4804045FE
:1003F00002D14FF0020808E0DFF89880404502D1B2
:100400004FF0030801E04FF0040808FA06F848EA44
:100410000508CCF808804D68D9F80060ED034D461A
:1004200001D5164300E096432E604D68DAF800606F
:10043000AD03554601D5164300E096432E604D6846
:10044000DBF80060ED025D4601D5164300E09643FF
:100450002E604D68DEF80060AD02754601D516438A
:1004600000E096432E60641C0D682A46E5407FF448
:1004700031AFBDE8F88F000000040140000011100A
:10048000001002400000014000080140000C014043
:1004900000100140001401400AB1016170470904D5
:1004A000FBE7000001488068704700004000002022
:1004B0000248816802781144816070474000002042
:1004C000074810B5016841F010010160032000F0F9
:1004D00075F80F2000F006F800F024F8002010BD99
:1004E0000020024070B50D4D04464FF47A71287813
:1004F000B1FBF0F00A490968B1FBF0F000F0CCFA6A
:1005000048B9102C07D200222146501E00F036F8C0
:1005100000206C6070BD012070BD00004000002014
:100520004C0000200C4808B5816941F0010181614F
:10053000816901F001010091C16941F08051C161FF
:10054000C06900F0805000900448416821F0E061EB
:1005500041F00071416008BD001002400000014000
:10056000002809DB00F01F020121914040098000B2
:1005700000F1E020C0F8001170470000F0B40E4B0D
:100580001B680C46C3F30223C3F10705042D00D9F1
:100590000425191D072901D2002300E0DB1E0126D6
:1005A00006FA05F1491E214099409E40761E1640EC
:1005B0003143F0BC00F047BF0CED00E0064900F00D
:1005C000070208684FF6FF03184040EA0220034A7A
:1005D00010430860704700000CED00E00000FA05D1
:1005E0002DE9F0470F46050061D0434E306800F01A
:1005F0000700B84209D2306820F007003843306065
:10060000306800F00700B84251D128683B4C8107A0
:1006100012D5400703D5606840F4E0606060287838
:10062000000703D5606840F4605060606068A968A6
:1006300020F0F000084360602878C00728D0686880
:10064000012810D02168022810D0890700292EDA4D
:10065000616821F0030101436160FFF723FF8046D9
:1006600041F288390DE021688903EFE78901EDE760
:10067000FFF718FFA0EB0801494502D90320BDE8A8
:10068000F0876068696800F00C00B0EB810FEFD173
:10069000306800F00700B8420BD9306820F007003E
:1006A00038433060306800F00700B84201D00120C4
:1006B000E5E72878400705D56068E96820F4E06040
:1006C000084360602878000706D56068296920F42F
:1006D000605040EAC100606000F018F86168084AA4
:1006E000C1F30311515CC840064908600648006820
:1006F000FFF7F8FE0020C2E7002002400010024091
:10070000B22400084C0000204400002012A185B053
:100710000FC98DE80F0014A0144A006804905168B6
:10072000134801F00C03042B10D0082B0ED1C1F399
:100730008343C9031DF803000AD5516804AAC1F315
:100740004041515C0A4A5043B0FBF1F005B070479C
:1007500008494843FAE700000203040506070809B0
:100760000A0B0C0D0E0F10100102000000100240C9
:1007700000127A0000093D002DE9F84F040070D006
:100780002078C04DC00749D06868C0F381000128B7
:1007900007D06868C0F38100022809D16868C003E7
:1007A00006D52868800339D560680028E7D035E091
:1007B0006068B0F5803F0BD010B1B0F5A02F11D01C
:1007C000286820F480302860286820F4802002E027
:1007D000286840F480302860606890B1FFF762FEBE
:1007E00006460AE0286840F480202860F0E700BF51
:1007F000FFF758FE801B642873D828688003F7D55C
:100800000CE0FFF74FFE064605E000BFFFF74AFE8B
:10081000801B6428F0D828688003F7D420789A4E8B
:1008200080074FF001094FF0000839D5686810F0D3
:100830000C0F07D06868C0F38100022809D16868EE
:10084000C00306D42868800714D52069012808D180
:1008500010E02069B0B1C6F80090FFF723FE07460C
:1008600005E00AE1FFF71EFEC01B0228C4D8286875
:100870008007F7D52868616920F0F80040EAC100D8
:1008800028600DE0C6F80080FFF70CFE074604E084
:10089000FFF708FEC01B022823D828688007F7D47A
:1008A000207800072CD57948A169D9B1C0F800900B
:1008B000FFF7F8FD074604E0FFF7F4FDC01B022830
:1008C0000FD8686A8007F7D571484FF4FA5100686D
:1008D000B0FBF1F0009000BF0098411E0091FAD2E9
:1008E0000EE080E0C0F80080FFF7DCFD074604E082
:1008F000FFF7D8FDC01B022875D8686A8007F7D4B7
:100900002078400760D5E8690027C00008D4E8696E
:1009100040F08050E861E869012700F080500090C5
:100920005C480168C90513D40168834641F48071AD
:100930000160FFF7B7FD824606E000BFFFF7B2FD9A
:10094000A0EB0A0064284ED8DBF80000C005F5D5FE
:10095000E06801280AD008B1052813D0286A20F0E1
:1009600001002862286A20F0040002E0286A40F0B2
:1009700001002862E06841F2883B98B1FFF792FDE0
:1009800082460BE0286A40F004002862EEE700BFD0
:10099000FFF788FDA0EB0A0159455AD8286A80075D
:1009A000F6D50CE0FFF77EFD824605E0FFF77AFD05
:1009B000A0EB0A0159454CD8286A8007F6D41FB12C
:1009C000E86920F08050E861E06988B36968C1F3A4
:1009D0008101022944D00228C6F8608004D0FFF7C4
:1009E00061FD044638E034E0FFF75CFD074604E0B3
:1009F000FFF758FDC01B02282BD828688001F7D4C8
:100A0000206AB0F5803F05D16868A16820F4003005
:100A100008436860D4E908010843696821F4741147
:100A200008436860C6F86090FFF73CFD044606E0A6
:100A300025E000BFFFF736FD001B022809D8286813
:100A40008001F7D51BE000BFFFF72CFD001B02283B
:100A500002D90320BDE8F88F28688001F4D40EE0A5
:100A60000128F7D06868226A00F48031914204D1ED
:100A7000616A00F47010884201D00120EAE700208A
:100A8000E8E70000001002400000424280044242B9
:100A90004C0000200070004010B5401EB0F1807F77
:100AA00001D3012010BD4FF0E02460610F216017D9
:100AB00000F0C9FC0020A06107202061002010BDCB
:100AC0007047704770B590F83C20012A26D0012469
:100AD00080F83C40022280F83D2003685A689D68F7
:100AE00022F070060A6832435A600D4B02689A423F
:100AF00008D0B2F1804F05D00A4B9A4202D00A4B7F
:100B00009A4204D1496825F080031943916080F826
:100B10003D40002180F83C10084670BD022070BDA9
:100B2000002C014000040040000800402DE9F04185
:100B30000D46040003D094F83D0018B108E00120F0
:100B4000BDE8F081002084F83C00204600F040F829
:100B5000022084F83D002068816844F20702914336
:100B60008160211D206800F087FB226890689169F0
:100B7000166A2B68AF69034340F20330814341EAB0
:100B80000721A868EF6908434FF6FC418843E968EC
:100B900040EA0720014328692F6A000140EA073034
:100BA000084369686D6926F0220646EA051529435F
:100BB00093602268906154F8460B0162012004F8AA
:100BC0001F09E0752076E0762077A0750020B7E752
:100BD00000B585B000210091019102910391006858
:100BE000114988421ED11148C16941F00401C16117
:100BF000C16901F004010491816941F0080181613A
:100C00008069694600F008000490C0200090084800
:100C1000FFF752FB002211461E20FFF7AFFC1E20FB
:100C2000FFF79EFC05B000BD000800400010024028
:100C3000000C014070B590F83E60044690F83F50BB
:100C400090F8423090F84320022021B1042914D0BA
:100C5000012E25D11EE0012E22D1012B20D184F8B6
:100C60003E0084F8420001220021206800F03AFB97
:100C70002068C16841F002012FE0012D10D1012A46
:100C80000ED184F83F0084F843000421206800F06E
:100C900029FB1EE0012D03D1012B01D1012A01D036
:100CA000012070BD84F83E0084F83F0084F84200C3
:100CB00084F8430001220021206800F013FB012288
:100CC0000421206800F00EFB2068C16841F0020199
:100CD000C1602068C16841F00401C16020680168FA
:100CE00041F001010160002070BD704770B50446FD
:100CF000006801694FF00005C943890715D4C16830
:100D0000C943890711D4E91E0161012020772068B9
:100D100080698007204602D0FFF7E7FF04E000F07B
:100D2000BFF8204600F04EF9257720680169C943D5
:100D3000490717D4C168C943490713D46FF00401A8
:100D40000161022020772068806910F4407F2046EE
:100D500002D0FFF7CAFF04E000F0A2F8204600F03E
:100D600031F9257720680169C943090716D4C1689C
:100D7000C943090712D46FF00801016104202077EC
:100D80002068C0698007204602D0FFF7AEFF04E06C
:100D900000F086F8204600F015F9257720680169F3
:100DA000C943C90617D4C168C943C90613D46FF033
:100DB00010010161082020772068C06910F4407F8D
:100DC000204602D0FFF791FF04E000F069F82046CA
:100DD00000F0F8F8257720680169C943C90708D1F0
:100DE000C168C943C90704D1891E0161204600F0CA
:100DF00039F920680169C943090609D4C168C943A2
:100E0000090605D46FF0800101612046FFF758FE06
:100E100020680169C943490609D4C168C943490624
:100E200005D46FF040010161204600F01CF92068F4
:100E30000169C94389060BD4C168C943890607D42F
:100E40006FF0200101612046BDE87040FFF739BE18
:100E500070BD000000B585B00021009101910291A4
:100E6000039100680B49884211D10B48816941F018
:100E7000040181618069694600F00400049040200B
:100E800000900220019003900448FFF715FA05B086
:100E900000BD0000000400400010024000080140B6
:100EA000704770B5044690F83C000D4601280AD002
:100EB000012084F83C0042B1042A18D0082A2AD024
:100EC0000C2A4DD139E0022070BD206800F018FADC
:100ED0002068816941F0080181612068816921F001
:100EE00004018161206881692A69114311E0206849
:100EF00000F02EFA2068816941F400618161206868
:100F0000816921F480618161206881692A6941EAEF
:100F10000221816124E0206800F046FA2068C1695E
:100F200041F00801C1612068C16921F00401C1617B
:100F30002068C1692A69114311E0206800F060FA55
:100F40002068C16941F40061C1612068C16921F470
:100F50008061C1612068C1692A6941EA0221C161D9
:100F6000002084F83C0070BD10B5040003D094F854
:100F70003D0010B107E0012010BD002084F83C00C6
:100F8000204600F01EF8022084F83D00211D206854
:100F900000F072F9012084F8460084F83E0084F8DD
:100FA0003F0084F8400084F8410084F8420084F84F
:100FB000430084F8440084F8450084F83D00002094
:100FC00010BD70477047000010B50446022249B1B9
:100FD00004290ED0082913D094F84100012816D016
:100FE000012010BD94F83E000128F9D184F83E207C
:100FF0000FE094F83F000128F2D184F83F2008E088
:1010000094F840000128EBD184F8402001E084F8F6
:1010100041200122206800F065F90F4920688842CC
:1010200003D1426C42F4004242642068884208D0F6
:10103000B0F1804F05D00949884202D00849884262
:1010400004D1816801F00701062903D0016841F04D
:1010500001010160002010BD002C0140000400408F
:101060000008004070477047FEE700002DE9F0419E
:1010700086B000242448009401940294039481696A
:1010800041F010018161816901F0100104918169D1
:1010900041F020018161816901F0200104918169A1
:1010A00041F004018161816901F0040104918169C9
:1010B00041F0080181618069144F00F008004FF48D
:1010C00000550490002229463846FFF7E5F9DFF87D
:1010D0004080002203214046FFF7DEF900950226FA
:1010E00001250396CDE9015469463846FFF7E4F837
:1010F0000320CDE90005CDE9024669464046FFF7E9
:10110000DBF806B0BDE8F08100100240001001409D
:101110000008014010B58AB0002407941C216846DD
:101120000894FFF751F81648144901604521C0E9B9
:10113000011440F2FE31C0E903148461FFF714FF8B
:1011400008B172B6FEE7079407A90D480894FFF7A7
:10115000B9FC08B172B6FEE76020CDE90004029444
:101160000022694606480494FFF79BFE08B172B658
:10117000FEE70348FFF76EFE0AB010BD0004004012
:101180005000002010B58CB024216846FFF71CF8F1
:1011900000241748099415490A94C0E900144FF631
:1011A000FF71C0E902418021046181610320CDE922
:1011B00000040120CDE902040A210491CDE9054093
:1011C000CDE9074169460A48FFF7B0FC08B172B69D
:1011D000FEE7099409A906480A94FFF773FC002862
:1011E00001D072B6FEE70CB010BD00000008004050
:1011F00098000020FEE7FEE770477047FFF758B9F8
:1012000030B58FB028216846FEF7DEFF14210AA80A
:10121000FEF7DAFF01210804CDE900100024029452
:1012200002250491CDE907504FF4E010099068467B
:10123000FFF7A2FA08B172B6FEE70F20CDE90A0562
:101240004FF48060CDE90C4002210AA80E94FFF70C
:10125000C7F9002801D072B6FEE70FB030BD704765
:101260000148FFF743BD0000500000200148FFF790
:101270003DBD000098000020F0B50268164B174CE9
:10128000174D4FF08047984205D0B84203D0A04296
:1012900001D0A84203D122F070064A683243984236
:1012A00005D0B84203D0A04201D0A84203D122F415
:1012B0004074CA6822434C6922F0800222430260D3
:1012C0008A68C2620A688262984201D10969016330
:1012D00001214161F0BD0000002C014000040040EC
:1012E0000008004010B501F01F030121046A994075
:1012F0008C430462016A9A401143016210BD0000F0
:1013000030B5026A22F001020262026A436884690F
:1013100024F073050C682C4322F002058A682A43E6
:101320000A4DA8420BD122F00805CA6823F4407385
:101330002A434D6922F004021D438B692B4343600D
:10134000846149684163026230BD0000002C0140A5
:1013500030B5026A22F010020262026A43688469B0
:101360000D6824F4E64444EA05248D6822F0200246
:1013700042EA05120B4DA8420ED1CD6822F0800240
:1013800042EA05124D6923F4406343EA85038D69FF
:1013900022F0400243EA8503436084614968816327
:1013A000026230BD002C014030B5026A22F4807226
:1013B0000262036A4268C46923F4007324F073056F
:1013C0000C682C438D6843EA05230C4DA8420ED1CE
:1013D000CD6823F4006343EA05234D6922F44052AB
:1013E00042EA05128D6923F4806342EA05124260E5
:1013F000C4614968C163036230BD0000002C014034
:1014000030B5026A22F480520262046A4268C369FB
:101410000D6823F4E64343EA05238D6824F4005461
:1014200044EA0534064DA84204D14D6922F48042B5
:1014300042EA85124260C36149680164046230BDBA
:10144000002C0140FEE70907090E002804DB00F12B
:10145000E02080F80014704700F00F0000F1E02059
:1014600080F8141D7047002800DA4042704730B5FC
:10147000B0F8C830D0F8CC4030F913504D1B2C4494
:10148000C0F8CC4020F81310B0F8C810491C89B23D
:10149000A0F8C810642902D10021A0F8C810D0F823
:1014A000CC10642391FBF3F1A0F8CA10118030BD79
:1014B000BAB0FFF705F8FFF7A3FEFFF7D7FDFFF778
:1014C00029FEFFF75FFE3C215148FFF7B3FBDFF831
:1014D00040A1DFF840B10120FEF7DCFEFEF7E2FF9D
:1014E0004D4C80B2E0802189401A00F089FE5946B7
:1014F000206100F0A7FD6061DAF80000406A6080BA
:10150000434934A800F0C4F8DDE93601C4E90E010E
:10151000BDF9D000A08000F073FE616900F092FD7B
:1015200000F002FD3D4A3E4B00F016FB00223D4B11
:1015300000F012FB3C4A3D4B00F00EFB00F0DAF8E5
:10154000E06000F041FE01B204F10A026846FFF7D4
:101550008EFFB4F90A10A06A401A00F051FEE06153
:10156000616981460D4600F063FE616A00F008FD86
:1015700006466062284600F0D7FC05460F464846FE
:10158000216A00F021FF00F0CFFC0022284B00F080
:10159000E3FA2A463B4600F087F90746884630467C
:1015A00000F0C2FC0022234B00F0D6FA05460E469E
:1015B000484600F0B9FC00221F4B00F0CDFA2A4645
:1015C000334600F0C9F83A46434600F0C5F800F04B
:1015D00091F80125E06210F1FF4F00D3AD1E00F03D
:1015E000F3FDFFF740FFA061B0F5806F02DB40F232
:1015F000FF30A061014602230122284600F01EF8B8
:10160000E0882081E0682063E069206263E70000F1
:101610009800002000007A440000002046175D7406
:10162000D145973F00004E400B9B038956D89C3F05
:1016300000002440000069400000494070B50D469C
:10164000044600210F48FFF7BFFC0F4805600F4D0F
:10165000012C0DD0641C12D0002201212846FEF777
:101660001BFF00222846BDE870400221FEF714BF90
:10167000002201212846FEF70FFF0122F2E7012296
:10168000EBE7000050000020340400400008014057
:1016900030B50B68596A164A0024157825B10269DD
:1016A0008A4206D1048017E004804FF001031370D2
:1016B00012E01C684FEAC46408D2002C04DADB6A2A
:1016C0005B1A1A44524206E08A1A04E0002CFBDB43
:1016D000DB6A9A1A0A440280D0E90253B0F900206A
:1016E000D417AA1863418260C0E9033130BD0000FD
:1016F0000000002021F00042A2F16052B2F5801FEC
:1017000001F0004328BFD2F17F6C0BD95FEA001CC7
:1017100043EAC20242EB507018BF704728BF20F066
:1017200001007047B2F5801FBCBF184670474FEAF2
:10173000410C1CF5001F02D2084600F040BE70B5F7
:1017400000F0B4FA00000089FFF7F6BF4FF0004048
:10175000A0F580007047000010B591EA030F48BF64
:1017600083F0004300F1FE82841A71EB030C05D272
:10177000121943EB0C03001B61EB0C01DFF824E1B1
:101780004FEA1154A4EB135C1EEA430F18BF9EEA04
:10179000445F73D023EA0E03DCF1200E21EA0451EA
:1017A00043F4801332D322FA0CFE10EB0E0023FA1E
:1017B0000CFE41EB0E01CCF1200E03FA0EFE10EBF5
:1017C0000E0051F10001B1F5801FCCF1200E32D294
:1017D00001EB045112FA0EF2BDE8104058BF7047F9
:1017E000401C38BF5FEA420218BF7047002814BF90
:1017F00020F0010041F100014FEA410313F5001F01
:1018000038BF7047A1F1C04100F09EBA012A43EBF6
:101810000302ACF1200CDCF11F0E32BF4FF0000EC2
:1018200023FA0CF310EB030041EB0451B4EB115F0E
:10183000D0D0A1EB045101F5801149085FEA3000D6
:1018400001EB04510ED350F1000038BF12FA0EFE26
:1018500008D1BDE81040C9E7401C38BF5FEA42022A
:10186000CAD1C3E7BDE810404FEA410313F5001F9A
:1018700038BF7047A1F1C04100F066BA9EEA445FEC
:1018800008D011EA5E0FBDE8104004BF01F000412E
:1018900000207047BDE8104070B500F007FA00BFA7
:1018A00064FBBE3E0000E0FF2DE9C04130B4DFF82C
:1018B000A0C23CEA111418BF3CEA131400F0EC80FB
:1018C00081EA03051CEA111444EAD57418BF1CEA26
:1018D000131500F0C780A4EB05044FF0004545EA5E
:1018E000C12145EAC32341EA505143EA525304F16E
:1018F0007F74994204F500344FEAC0204FEAC222B7
:1019000008BF904200F09C804FEA13650FF240162A
:10191000765D4FEA134506FB05F7C7F1807706FBB6
:1019200007F74FEAD737A7FB03687642C8F5803838
:10193000A7FB06CE38BFA8F1010807FB08E64FF069
:10194000000EA6FB028CE6FB03CEDCF1000CCEF110
:10195000004E38BFAEF1010EA6FB0C584FF0000749
:101960004FF00005E6FB0E87A1FB08C6A0FB07CEE3
:1019700016EB0E0645F10005E1FB076515F1E04E9B
:101980007EBFA4F580345FEA46066D4116F18007FC
:1019900045F100054FEA17274FEA066647EA056753
:1019A000A6F1DE46B6F1805F4FEA15251FD938460D
:1019B00024F0010C05EBC471BCF1FE6F01EB0C11BE
:1019C00002D8F0BCBDE8008124425CBF01F5801E56
:1019D0009EEAC47F02D4F0BCBDE80081244238D422
:1019E000F0BCA1F1C041BDE8004100F0ADB94FEA43
:1019F000D22242EA43524FEAD323A7FB02864FEAA0
:101A0000D02040EA415007FB03661EEA0E0F4FEA62
:101A1000D12105FB026658BFA6EB0056B6EB005677
:101A20004FEA520E4EEAC37E18EB0E0E56EB530EE3
:101A3000BDD518EB02085E417F1C55F10005B6E7E5
:101A40004FF480154FF000074FF000064FF00008EC
:101A5000ADE7F0BC4FF0000001F1C04101F00041E2
:101A6000BDE8008111EA0C1F0CEA131500D00CE050
:101A700013EA0C1F00F025804FF00000F0BC81EA53
:101A8000030101F00041BDE80081F0BCBDE8004168
:101A900081EA030100F058B9F0BCBDE8004170B51F
:101AA00000F004F9097EFC3E00F007B881EA03016A
:101AB0004FF0000001F00041704781EA030100F09F
:101AC00043B9F0BCBDE800414FF000002149704728
:101AD000FFFDFBF9F7F5F4F2F0EEEDEBE9E8E6E4F3
:101AE000E3E1E0DEDDDBDAD8D7D5D4D3D1D0CFCD7A
:101AF000CCCBCAC8C7C6C5C4C2C1C0BFBEBDBCBBB3
:101B0000BAB9B8B7B6B5B4B3B2B1B0AFAEADACABAD
:101B1000AAA9A8A8A7A6A5A4A3A3A2A1A09F9F9E87
:101B20009D9C9C9B9A999998979796959594939339
:101B3000929191908F8F8E8E8D8C8C8B8B8A8989D0
:101B40008888878786858584848383828281818053
:101B50000000FF070000F87FDFF848C170B51CEAFD
:101B6000111E1EBF1CEA13159EEA0C0F95EA0C0FFE
:101B700000F06F8081EA030423EA4C134EEAD47E1E
:101B800021EA4C1141F4801143F48013AE44A1FBCF
:101B9000024CA0FB0365AEF17F7E361955EB0C05B8
:101BA000A1FB034C4CF10003A0FB021C16EB0C063E
:101BB000654153F10003094218BF46F0010613F4D2
:101BC000007F0BD14FEA03314FEA0530340341EA7D
:101BD000155140EA16506FF003020AE04FEAC321A4
:101BE0004FEAC520F40241EA555140EA56506FF0E1
:101BF000020202EB2E4201EB025585EACE710AD0B9
:101C00005FEA440C18BF24F0004450F1000041F199
:101C1000000120EAD47040F2FE7C624500D270BD23
:101C2000A84214BF4FF080444FF04044002E08BF3C
:101C30000024BEF1806FA8BFA1F1C041BDE8704093
:101C400080F282804FF0000001F1C04101F00041BC
:101C500070479EEA0C0F0CEA131518BF95EA0C0F9B
:101C600006D04FF0000081EA030E0EF0004170BD77
:101C700000F01CF88900013E00F007B800F009B838
:101C80004FEA430C5FEA5C5C08D081EA030100F094
:101C90005BB84FEA410C5FEA5C5CF6D14FF00000A4
:101CA000014970470000FF070000F87F0EF1020EA7
:101CB0002EF0030E5EF8046B364205D4012A43EB86
:101CC000030515F5001F12D8012841EB010C1CF586
:101CD000001F0CD80ED14FEAD17C15F5001F0CEB7C
:101CE0004C0C0CF1020C08BF4CEBD37C04E04FF021
:101CF000080C01E04FEAD37C0CEB4C0526FA05F604
:101D000006F00706B6F1040C06D20EEB860CBDE811
:101D100070404CF0010C6047DFE80CF0090B020248
:101D20004FF000414FF00000A1F5002170BD1946B1
:101D30001046012851EB010418BFD4F5001484BFEC
:101D4000002001F0004170BD0808A0F500114FEA25
:101D50003101704710B591EA030F48BF83F000438B
:101D60003FF502AD841A71EB030C07D212198CF007
:101D7000004C43EB0C03001B61EB0C01DFF8A4E10A
:101D80004FEA1154A4EB135C1EEA430F18BF9EEAFE
:101D9000445F00F0B08023EA6E03524221EA04510E
:101DA000C3EB6E0338BF5B1EDCF1200E25D322FA95
:101DB0000CFE10EB0E0043FA0CFE41EB0E01CCF1D1
:101DC000200E03FA0EFE10EB0E0051F10001CCF1D3
:101DD000200E29D412FA0EF201EB0451BDE8104096
:101DE00058BF7047401C1CBFB2F1004F704700281D
:101DF0000CBF491C20F00100704712EB020E43EBB0
:101E0000030218BF4FF0010E4EEA4202ACF1200C63
:101E1000DCF11E0E54D943FA0CFE10EB0E0051F10A
:101E2000FF31CCF11E0ED5D50EF1010E12FA0EFEC9
:101E3000404141EB010101EB445C5FEA5C5C10D97D
:101E400010EBDE7001EB045138BFBEF1004FBDE86E
:101E5000104018BF704700280CBF491C20F001003B
:101E6000704730D24FEAD42C11F5001124F40064ED
:101E70001BD0B1FA81F20B3AA41AA41ED2F12003AE
:101E8000914030FA03F31943904001EBCC71002CE0
:101E900001EB0451BDE81040A8BF704701F1C041FB
:101EA0004FF0000001F000417047B0FA80F310FAE3
:101EB00003F100D110BDE41A173C4805C90AE4E754
:101EC00001EB045110BD491001EB0451BDE8104075
:101ED0004FEA300002E04FF0000170474A0008BFAF
:101EE0000042F8D0B2F5001F28BF704701F0004152
:101EF0004FF0000070479EEA445F07D011EA5E0F82
:101F0000BDE8104004BF002100207047BDE810402C
:101F100070B5FFF7CBFE00BF40DFF63E83F0004117
:101F2000104670470000E0FF43004FEAD30C4FEA31
:101F30003C0C43401FBF40070CF1605113F0FE4FB3
:101F400070471CF0006F03D100200CF00041704777
:101F50000CF0004343EA507010B540EACC0000F0AA
:101F6000E8F900BF000000924FEA0001FFF7ECBE65
:101F70004FF000414FF00000A1F500217047000034
:101F800090EA010F48BF81F0004100F12482421A1B
:101F90003CBF801A89184FEAD0524FF07F4C1CEAA0
:101FA000410FA2EBD15318BF9CEA026F00F03B80B7
:101FB0004FF0004C4CEA00204CEA012121FA03FCCE
:101FC00010EB0C0C1ED202F1FF325FEA1C2040EB3A
:101FD000C25038BF70471CF07F0F4FEA400C18BF4B
:101FE000BCF17F4F38BF7047C3F12003994008BF51
:101FF00020F00100BCF17F4F38BF7047A0F1C04016
:1020000000F0DDB94FEA3C00000A40EBC25028BFA7
:102010001CF0FF0F4FEA400CE6D018BFBCF17F4F19
:1020200038BF7047EAE79CEA026F05D010EA5C0F00
:1020300008BF00F00040704710B500F07AF900BF0B
:1020400064FBBE3E4FF47F0C1CEAD0121EBF1CEA9C
:10205000D11392EA0C0F93EA0C0F00F0858090EAFE
:10206000010F48BF42F4807240F4000C41F40000BC
:102070002CF07F4120F07F4000B58142A2EB0302AB
:102080000FF2081CACEB504EC0F100009EF800E0CF
:102090004FEA4E0E00FB0EFC38BF49004FEA2C1CE5
:1020A00002F5FA020CFB0EF34FEACE1E4FEA112C9A
:1020B0004FEAC1210EEB635E42EB22420EFB0CFCA9
:1020C0004FEA1C5300FB03114FEA112C4FEA013178
:1020D0000EFB0CFC4FEADC4C00FB0C11C14228BF8C
:1020E00009184CEB03335DF804EB10EB410143EBB3
:1020F000C250B2F57C0F38BF704729D512F0F00FEF
:102100001CBF00F1C04000F0004070470081828396
:102110008485868788898B8C8D8E8F9192939596F6
:1021200097999A9C9D9FA0A2A3A5A7A8AAACAEB080
:10213000B2B3B5B7B9BCBEC0C2C5C7C9CCCED1D485
:10214000D7D9DCDFE2E6E9ECF0F3F7FAFE000000B5
:102150004FEA400C0CF1807CBCF17E4F28BF7047E9
:10216000B0F1C04000F02BB990EA010F0CEAD11396
:1021700048BF42F48072624538BF634507D213F40A
:102180007F0F16D080EA010000F00040704710B5C4
:1021900000F0CFF8097EFC3E00F005B880EA0100AF
:1021A00000F00040704780EA010000F0004000F0BD
:1021B00006B912F47F0F04BF0248704780EA01009D
:1021C00000F0FDB80000C07F41000B0ED3F19E026D
:1021D00008D950F400034FEA032323FA02F048BF62
:1021E0004042704710B500F0A4F800BF4992248027
:1021F000002070476FF0004282EA20007047000024
:1022000010F0004148BF4042B0FA80F310FA03F2E8
:10221000C3F19D030BD051EAC35101EB12205306C9
:1022200038BF704700F1010008BF20F0010070477F
:102230004FF47F0C1CEAD0121EBF1CEAD11392EAA5
:102240000C0F93EA0C0F00F0478090EA010F48BF93
:1022500042F480724FF0004C4CEA00204CEA01211D
:1022600002EB0302A0FB0113A2F50002002918BF34
:1022700043F001035B0028BF4FEA330342EB2242E5
:102280005FEA132C4CEBC2502EBFBCEB436FB2F590
:102290007C0F70474FEA036CBCF1004F08BF20F081
:1022A0000100B2F57C0F38BF70470BD582F0FF02FA
:1022B00012F5803FC8BF704700F1C040D8BF00F0A2
:1022C0000040704700F5000C5FEA4C0C48BF7047B7
:1022D000B0F1C04000F073B890EA010F0CEAD113DE
:1022E00048BF42F48072624538BF634504D280EA39
:1022F000010000F00040704710B500F01AF800BF70
:102300008900013E00F007B800F009B85FEA410C0F
:102310005FEA1C6C08D080EA010000F050B85FEA68
:10232000400C5FEA1C6CF6D14FF00040A0F5800035
:1023300070470EF1020E2EF0030E5EF8044B24429D
:1023400004D44FEA4102B2F17F4F11D84FEA400363
:10235000B3F17F4F0CD80ED14FEAD07CB2F17F4F52
:102360000CEB4C0C0CF1020C08BF4CEBD17C04E0E4
:102370004FF0080C01E04FEAD17C0CEB4C0324FA3F
:1023800003F404F00704B4F1040C06D20EEB840C41
:10239000BDE810404CF0010C6047DFE80CF0070886
:1023A00002024FF00040A0F5800010BD0846420038
:1023B00018BFD2F1807288BF00F0004010BDFF212D
:1023C00041EAD050C005704790EA010F48BF81F044
:1023D00000413FF5DCAD421A04D882F00042A0EB88
:1023E000020011444FEAD0524FF07F4C1CEA410FDB
:1023F000A2EBD15318BF9CEA026F4AD04FF0004CB9
:102400004CEA00204CEA012121FA03FCB0EB0C0C51
:102410000FD412F0FE0F36D05FEA4C001DD500122B
:1024200040EBC25038BF70471CF03F0F18BF7047D9
:102430000BE0A2F101025FEA1C2040EBC25038BF62
:1024400070471CF07F0F18BF7047C3F120039940FD
:1024500014BF401E20F00100704780084FEA12238D
:1024600008BF7047B0FA80FCA2EB0C02CCF1280C3C
:1024700060FA0CF093EA122F04BF00EBC2507047D1
:102480004FEAC3707047130A5FEADC1008BF704759
:10249000F6E79CEA026F04D010EA5C0F08BF002048
:1024A000704710B5FFF745FF40DFF63E81F0004072
:1024B000704700000000000000000102030406074E
:1024C00008090000E424000800000020500000007B
:1024D000280100083425000850000020F006000004
:1024E000440100080000000000000000000000009F
:1024F00000000000000000000000000000000000DC
:102500000000000000000000000000003200000099
:1025100000000000000000000000000000000000BB
:10252000000000000100000010000000000000009A
:042530000024F4008F
:04000005080000ED02
:00000001FF
